:100870004100180041001900C10144001A000000A5
:0B0880000042001400004200160000BF
:1007070074017E00A807088005C333CE33CED8F91D
:10071700FFEE3395E0FDFC90001AE0F8A3E0F9A3A3
:10072700E0FAA3E05FFFEA5EFEE95DFDE85CFC4DF1
:0B0737004E4F60047F0180027F002213
:10046E00900029EFF0ED604D90001AE0F8A3E0F94E
:10047E00A3E0FAA3E0FBC000C001C002C0039000DD
:10048E0029E0FF74017E00A807088005C333CE3330
:10049E00CED8F9FFEE3395E0FDFCD003D002D001AB
:1004AE00D000EB4FFFEA4EFEE94DFDE84CFC90000C
:1004BE001A1201CF2290001AE0F8A3E0F9A3E0FA95
:1004CE00A3E0FBC000C001C002C003900029E0FF02
:1004DE0074017E00A807088005C333CE33CED8F949
:1004EE00FFEE3395E0FDFC12019ED003D002D00149
:1004FE00D000EB5FFFEA5EFEE95DFDE85CFC90007C
:05050E001A1201CF22CA
:0B06C900900026EBF0A3EAF0A3E9F09C
:1006D400E4FFFE900026E0FBA3E0FAA3E0F98F829A
:1006E4008E83120026601B900026E0A3E0A3E00F97
:1006F400EFAC0670010E14F5828C83120026F59976
:0207040080D1A2
:0107060022D0
:0402F700AB07AA06A1
:1002FB00900010E4F0A3740FF0900010E0FEA3E068
:10030B002400F58274003EF583E4F0EBAE02781F17
:10031B00CEC313CE13D8F9FF900012EEF0A3EFF07B
:10032B004E600DEBF4FFEAF4FEEF2401FBE43EFA22
:10033B00900011E024FFF0900010E034FFF07C00FF
:10034B007D0AAF03AE02120065ED2430FFE0FCA383
:10035B00E02400F58274003CF583EFF07C007D0A0D
:10036B00AF03AE02120065AA06AB07EB4A70C19051
:10037B000012E07002A3E0601E900011E024FFF079
:10038B00900010E034FFF0E0FEA3E02400F582744F
:10039B00003EF583742DF0900010E0FEA3E02400E6
:0A03AB00F974003EFA7B011206C946
:0103B5002225
:04074200AD07AC064D
:10074600E4FBFAAFD1EF7F00FEABD9E42BFFEA3E24
:10075600CF2401CF3400FE1200537C007D641200CA
:0F07660065AA06AB07EAF5D4EFF5DCD2DED2DFE9
:010775002261
:04077600AD07AC0619
:10077A00E4FBFAAFD1EF7F00FEABD9E42BFFEA3EF0
:10078A00CF2401CF3400FE1200537C007D64120096
:0F079A0065AA06AB07EAF5D3EFF5DBD2DED2DFB7
:0107A900222D
:0407AA00AD07AC06E5
:1007AE00E4FBFAAFD1EF7F00FEABD9E42BFFEA3EBC
:1007BE00CF2401CF3400FE1200537C007D64120062
:0F07CE0065AA06AB07EAF5D2EFF5DAD2DED2DF85
:0107DD0022F9
:08020C00900020EEF0A3EFF0DA
:10021400A31201DB00000000A2AF9200C2AF75C7B9
:10022400AA75C755E4F591A20092AF53B3FE43B447
:100234000143DE04A2AF9200C2AF75C7AA75C755C9
:10024400F591A20092AF53B3FD43B40243DE02A280
:10025400AF9200C2AF75C7AA75C755F591A20092B7
:10026400AF53B3FB43B40443DE0153DF3F53DFF822
:1002740043DF049000221201DB0016E360900022A9
:10028400E0FCA3E0FDA3E0FEA3E0FFC006C00790EE
:100294000020E0FEA3E0FFFBAA06E4F9F8D007D0B3
:1002A4000612010C9000221201CF900022E0FCA360
:1002B400E0FDA3E0FEA3E024FFFFEE34FFFEED34F7
:1002C400FFFDEC34FFFC9000221201CF900022E0ED
:1002D400FCA3E0FDA3E0FEA3E0FF78081201BC8FBD
:1002E400D1900022E0FCA3E0FDA3E0FEA3E0FFE444
:0202F4008FD9A0
:0102F60022E5
:10063B00900016E475F0011200BAAFF0FEE4FCFD79
:10064B007BF47A01F9F8D31201AB5007E490001652
:10065B00F0A3F0900014E475F0011200BAAFF0FEB5
:10066B00E4FCFD7BE87A03F9F8D31201AB5007E405
:06067B00900014F0A3F052
:010681002256
:03000B0002068268
:10068200C0E0C0F0C083C082C0D075D000C000C03E
:1006920001C002C003C004C005C006C00790001814
:1006A200E0F58CA3E0F58AC28D12063BD007D00696
:1006B200D005D004D003D002D001D000D0D0D08257
:0706C200D083D0F0D0E0323C
:10082B00E4900020F0A3F05389F043890190001865
:10083B0074F8F0A37430F0758CF8F58AD2A9D2AFA6
:02084B00D28C4D
:01084D002288
:0300230002084E82
:10084E00C0E0C083C08230980AD20190001EE599A4
:10085E00F0C298309905200202C299D082D083D07E
:02086E00E03276
:1003B6009000201201DB0001C200A2AF9200C2AF82
:1003C60075C7AA75C755E4F591A20092AF53B1BFA0
:1003D60053B2BF75985043878053C4F8A2AF9200BA
:1003E600C2AF75C7AA75C755F591A20092AF43C4AF
:1003F60020900020E0F8A3E0F9A3E0FAA3E0FB7F59
:10040600607EE37D167C0012010CC3E49FFFE49E30
:10041600FE74019DFDE49CFC78081201BC8FC69019
:100426000020E0F8A3E0F9A3E0FAA3E0FB7F607EFA
:10043600E37D167C0012010CC3E49FFFE49EFE746C
:10044600019DFDE49CFCEFE48FC5A2AF9200C2AF14
:1004560075C7AA75C755F591A20092AF43C408D2D5
:07046600ACD2AFD299D20223
:01046D00226C
:1005AD00E58720E40302063AA2AF9200C2AF75C7F9
:1005BD00AA75C755439F01A20092AF75A638E4F501
:1005CD00A775AF04A2AF9200C2AF75C7AA75C75584
:1005DD0043A401A20092AF85AE0875A639F5A7A276
:1005ED00AF9200C2AF75C7AA75C75543A401A2004B
:1005FD0092AF85AE09A2AF9200C2AF75C7AA75C7FB
:10060D0055539FFEA20092AF75C7AA75C7558508B1
:10061D008475C7AA75C755850985A2AF9200C2AF6B
:0D062D0075C7AA75C755539FFEA20092AF76
:01063A00229D
:100806001205ADA2AF9200C2AF75C7AA75C755E46F
:10081600F591A20092AFF5B1F5B2F5B3F5B4F5AC2A
:05082600F5ADD2AF2288
:1007DE001208061203B67F987E3A12020C12082BEC
:1007EE007F147E001207AA7F3C7E001207767F4B95
:0807FE007E0012074280FE227A
:03000000020513E3
:10051300787FE4F6D8FD9000007FFF7E03E4F0A32C
:0A052300DFFCDEFA75812002056896
:10052D000207DEE493A3F8E493A34003F68001F2FF
:10053D0008DFF48029E493A3F85407240CC8C333CF
:10054D00C4540F4420C8834004F456800146F6DF9E
:10055D00E4800B0102040810204080900870E47EB6
:10056D00019360BCA3FF543F30E509541FFEE49393
:10057D00A360010ECF54C025E060A840B8E493A35A
:10058D00FAE493A3F8E493A3C8C582C8CAC583CA85
:10059D00F0A3C8C582C8CAC583CADFE9DEE780BE3D
:01088B00006C
:10002600BB010CE58229F582E5833AF583E022508F
:1000360006E92582F8E622BBFE06E92582F8E222D9
:0D004600E58229F582E5833AF583E49322F3
:10005300EF8DF0A4A8F0CF8CF0A428CE8DF0A42EC1
:02006300FE227B
:10006500BC000BBE0029EF8DF084FFADF022E4CC7F
:10007500F875F008EF2FFFEE33FEEC33FCEE9DEC48
:10008500984005FCEE9DFE0FD5F0E9E4CEFD22ED8E
:10009500F8F5F0EE8420D21CFEADF075F008EF2FD8
:1000A500FFED33FD4007985006D5F0F222C398FDC9
:0500B5000FD5F0EA2266
:1000BA00A3F8E0C5F025F0F0E582158270021583F9
:0600CA00E0C838F0E82256
:1000D00075F008758200EF2FFFEE33FECD33CDCCE7
:1000E00033CCC58233C5829BED9AEC99E58298406A
:1000F0000CF582EE9BFEED9AFDEC99FC0FD5F0D647
:10010000E4CEFBE4CDFAE4CCF9A88222B800C1B970
:100110000059BA002DEC8BF084CFCECDFCE5F0CBAE
:10012000F97818EF2FFFEE33FEED33FDEC33FCEBE7
:1001300033FB10D703994004EB99FB0FD8E5E4F9A2
:10014000FA227818EF2FFFEE33FEED33FDEC33FC8F
:10015000C933C910D7059BE99A4007EC9BFCE99A83
:10016000F90FD8E0E4C9FAE4CCFB2275F010EF2FC8
:10017000FFEE33FEED33FDCC33CCC833C810D707C8
:100180009BEC9AE899400AED9BFDEC9AFCE899F803
:0E0190000FD5F0DAE4CDFBE4CCFAE4C8F92296
:0D019E00CFF4CFCEF4CECDF4CDCCF4CC22F6
:1001AB00EB9FF5F0EA9E42F0E99D42F0E89C45F0AA
:0101BB002221
:1001BC00E8600FECC313FCED13FDEE13FEEF13FF21
:0301CC00D8F12245
:0C01CF00ECF0A3EDF0A3EEF0A3EFF022A3
:1001DB00A8828583F0D083D0821201F21201F21231
:1001EB0001F21201F2E473E493A3C583C5F0C58356
:1001FB00C8C582C8F0A3C583C5F0C583C8C582C86E
:01020B0022D0
:00000001FF
